:020000040800F2
:10C0000000C0002035D400089FD20008A5D2000847
:10C01000ABD20008B1D20008B7D20008000000007F
:10C02000000000000000000000000000BDD2000879
:10C03000C9D2000800000000D5D20008E1D20008F3
:10C040007DD400087DD400087DD400087DD400088C
:10C050007DD400087DD400087DD400087DD400087C
:10C060007DD400087DD400087DD400087DD400086C
:10C070007DD40008EDD200087DD400087DD40008EE
:10C080007DD400087DD400087DD400087DD400084C
:10C0900029D300087DD400087DD400087DD4000891
:10C0A0007DD400087DD400087DD400087DD400082C
:10C0B0007DD400083DD300087DD400087DD400085D
:10C0C0007DD400087DD400087DD400087DD400080C
:10C0D0007DD400087DD400087DD400087DD40008FC
:10C0E0007DD400087DD400087DD400087DD40008EC
:10C0F0007DD400087DD400087DD400087DD40008DC
:10C100007DD400087DD400087DD400087DD40008CB
:10C110007DD400087DD400087DD400087DD40008BB
:10C120007DD400087DD400087DD400087DD40008AB
:10C1300000000000000000000000000000000000FF
:10C1400000000000000000000000000000000000EF
:10C1500000000000000000000000000000000000DF
:10C1600000000000000000000000000000000000CF
:10C1700000000000000000000000000000000000BF
:10C1800000000000000000000000000000000000AF
:10C19000000000000000000000000000000000009F
:10C1A000000000000000000000000000000000008F
:10C1B000000000000000000000000000000000007F
:10C1C000000000000000000000000000000000006F
:10C1D000000000000000000000000000000000005F
:04C1E0005FF8E0F133
:10C1E40010B5054C237833B9044B13B10448AFF3AD
:10C1F40000800123237010BD6001002000000000B6
:10C204001051010808B5034B1BB103490348AFF3B0
:10C21400008008BD000000006401002010510108E6
:10C2240080B400AF044BDB681B0A03F00703184615
:10C23400BD4680BC704700BF00ED00E080B483B011
:10C2440000AF0346FB7197F90730002B0BDBFB793A
:10C2540003F01F02064997F907305B09012000FA31
:10C2640002F241F8232000BF0C37BD4680BC704762
:10C2740000E100E080B483B000AF03463960FB7195
:10C2840097F90730002B0ADB3B68DAB20C4997F9BF
:10C2940007301201D2B20B4483F800230AE03B6852
:10C2A400DAB20849FB7903F00F03043B1201D2B25E
:10C2B4000B441A7600BF0C37BD4680BC704700BFE4
:10C2C40000E100E000ED00E080B489B000AFF86068
:10C2D400B9607A60FB6803F00703FB61FB69C3F193
:10C2E4000703042B28BF0423BB61FB690433062B1B
:10C2F40002D9FB69033B00E000237B614FF0FF326E
:10C30400BB6902FA03F3DA43BB681A407B699A40BB
:10C314004FF0FF317B6901FA03F3D9437B680B408B
:10C32400134318462437BD4680BC704780B485B09B
:10C3340000AFF860B9607A60BB68013B0C4AD35C1B
:10C344001A46FB6813441B6823F4804323F010034C
:10C35400BA68013A06498A5C1146FA680A441146E9
:10C364007A6813430B6000BF1437BD4680BC704726
:10C374006C51010880B485B000AFF860B9607A6090
:10C38400BB68013B0B4AD35C1A46FB6813441B6829
:10C3940023F02002BB68013B0649CB5C1946FB68CD
:10C3A4000B4419467B6813430B6000BF1437BD462A
:10C3B40080BC70476C51010880B485B000AFF86050
:10C3C400B9607A60BB68013B0B4AD35C1A46FB68D0
:10C3D40013441B6823F04002BB68013B0649CB5C55
:10C3E4001946FB680B4419467B6813430B6000BF76
:10C3F4001437BD4680BC70476C51010880B485B0C9
:10C4040000AFF860B9607A60BB68013B0B4AD35C4B
:10C414001A46FB6813441B6823F08002BB68013B87
:10C424000649CB5C1946FB680B4419467B681343E9
:10C434000B6000BF1437BD4680BC70476C510108C7
:10C4440080B485B000AFF860B9607A60BB68013B26
:10C454000B4AD35C1A46FB6813441B6823F44072EE
:10C46400BB68013B0649CB5C1946FB680B44194683
:10C474007B6813430B6000BF1437BD4680BC704714
:10C484006C51010880B485B000AFF860B9607A607F
:10C49400BB68013B0B4AD35C1A46FB6813441B6818
:10C4A40023F44062BB68013B0649CB5C1946FB6838
:10C4B4000B4419467B6813430B6000BF1437BD4619
:10C4C40080BC70476C51010880B485B000AFF8603F
:10C4D400B9607A60BB68013B0B4AD35C1A46FB68BF
:10C4E40013441B6823F44052BB68013B0649CB5CF0
:10C4F4001946FB680B4419467B6813430B6000BF65
:10C504001437BD4680BC70476C51010880B485B0B7
:10C5140000AFF860B9607A603B60BB69102B14D13E
:10C52400BB68013B154AD35C1A46FB6813441A46A0
:10C534007B68D360BB68013B104AD35C1A46FB6836
:10C5440013441A463B68936013E0BB68013B0B4AF3
:10C55400D35C1A46FB6813441A467B689360BB6835
:10C56400013B064AD35C1A46FB6813441A463B68EF
:10C57400D36000BF1437BD4680BC70476C510108BE
:10C5840080B483B000AF786039603B68013B0A4AED
:10C59400D35C1A467B6813441B683A68013A06491F
:10C5A4008A5C11467A680A4443F00203136000BFB0
:10C5B4000C37BD4680BC70476C51010880B400AF95
:10C5C400044B1B68034A43F48033136000BFBD4629
:10C5D40080BC70470010024080B400AF064B1B685B
:10C5E40003F40033B3F5003F0CBF01230023DBB297
:10C5F4001846BD4680BC70470010024080B483B02A
:10C6040000AF7860064B5B6823F0030204497B6843
:10C6140013434B6000BF0C37BD4680BC704700BF5E
:10C624000010024080B400AF034B5B6803F00C03BE
:10C634001846BD4680BC70470010024080B483B0E9
:10C6440000AF7860064B5B6823F0F00204497B6816
:10C6540013434B6000BF0C37BD4680BC704700BF1E
:10C664000010024080B483B000AF7860064B5B6872
:10C6740023F4E06204497B6813434B6000BF0C372A
:10C68400BD4680BC704700BF0010024080B483B038
:10C6940000AF7860064B5B6823F4605204497B6802
:10C6A40013434B6000BF0C37BD4680BC704700BFCE
:10C6B4000010024080B483B000AF7860064B5B6822
:10C6C40023F4800204497B6813434B6000BF0C379A
:10C6D400BD4680BC704700BF0010024080B400AF6C
:10C6E400044B1B68034A43F08073136000BFBD46CC
:10C6F40080BC70470010024080B400AF064B1B683A
:10C7040003F00073B3F1007F0CBF01230023DBB2FD
:10C714001846BD4680BC70470010024080B483B008
:10C7240000AF78603960084B5B6823F47C127B6847
:10C7340003F440313B680B43034913434B6000BF90
:10C744000C37BD4680BC70470010024080B485B0F1
:10C7540000AF7860084B5A6907497B6813434B6103
:10C76400054B5A697B681340FB60FB6800BF1437B4
:10C77400BD4680BC704700BF0010024080B485B045
:10C7840000AF7860084BDA6907497B681343CB61D3
:10C79400054BDA697B681340FB60FB6800BF143704
:10C7A400BD4680BC704700BF0010024080B485B015
:10C7B40000AF7860084B9A6907497B6813438B6123
:10C7C400054B9A697B681340FB60FB6800BF143714
:10C7D400BD4680BC704700BF0010024080B400AF6B
:10C7E400044B5B68034A43F00103536000BFBD463A
:10C7F40080BC7047002004E080B483B000AF786050
:10C80400054B5A6804497B6813434B6000BF0C37DF
:10C81400BD4680BC704700BF002004E080B483B0F4
:10C8240000AF7860064B1B6823F0070204497B685D
:10C8340013430B6000BF0C37BD4680BC704700BF7C
:10C844000020024080B400AF034B1B6803F00703D1
:10C854001846BD4680BC70470020024080B483B0B7
:10C8640000AF78607B681B6843F040027B681A6005
:10C8740000BF0C37BD4680BC704780B483B000AFA6
:10C8840078607B689B6803F08003802B01D10123CF
:10C8940000E0002318460C37BD4680BC704780B4C6
:10C8A40083B000AF78607B685B6843F002027B680A
:10C8B4005A6000BF0C37BD4680BC704780B483B05B
:10C8C40000AF78607B680C3318460C37BD4680BCDB
:10C8D400704780B483B000AF78607B681B6843F016
:10C8E40001027B681A6000BF0C37BD4680BC7047EC
:10C8F40080B483B000AF78607B681B6843F080022B
:10C904007B681A6000BF0C37BD4680BC704780B49A
:10C9140083B000AF786039607B681A6A3B681A4359
:10C924007B681A6200BF0C37BD4680BC70470000AC
:10C9340080B485B000AF786039603B68012B1CD0AF
:10C944003B68042B17D03B68102B12D03B68402B5C
:10C954000DD03B68B3F5807F07D03B68B3F5806F9B
:10C9640001D105230AE0062308E0042306E003239B
:10C9740004E0022302E0012300E00023FB737B6850
:10C9840018331946FB7B0A4AD35C0B44BB60BB6873
:10C994001A68FB7B0749CB5C194604238B40DB43B5
:10C9A4001A40BB681A6000BF1437BD4680BC70478C
:10C9B400745101087C51010880B485B000AF7860DF
:10C9C40039603B68012B1CD03B68042B17D03B68B3
:10C9D400102B12D03B68402B0DD03B68B3F5807F01
:10C9E40007D03B68B3F5806F01D105230AE0062325
:10C9F40008E0042306E0032304E0022302E0012309
:10CA040000E00023FB737B6818331946FB7B0A4A5A
:10CA1400D35C0B44BB60BB681A68FB7B0749CB5CE7
:10CA2400194608238B401A43BB681A6000BF1437A9
:10CA3400BD4680BC704700BF745101087C51010899
:10CA440080B483B000AF786039607B683A681A6458
:10CA540000BF0C37BD4680BC704780B483B000AFC4
:10CA6400786039607B689B6823F4804323F0070374
:10CA74003A681A437B689A6000BF0C37BD4680BC95
:10CA8400704780B483B000AF786039607B685B68BE
:10CA940023F070023B681A437B685A6000BF0C376E
:10CAA400BD4680BC704780B483B000AF78607B68BB
:10CAB4009B6823F080027B689A6000BF0C37BD46F8
:10CAC40080BC704780B483B000AF78607B686FF03F
:10CAD40001021A6100BF0C37BD4680BC704780B4A8
:10CAE40083B000AF78607B68DB6843F001027B6849
:10CAF400DA6000BF0C37BD4680BC704780B483B099
:10CB040000AF786039603B681B0A9AB27B681A618F
:10CB140000BF0C37BD4680BC704780B483B000AF03
:10CB2400786039603B681B0A9AB27B685A6100BF1F
:10CB34000C37BD4680BC704780B485B000AF7860C8
:10CB440039607B68DB68FB603B681B0A9BB2BB6097
:10CB5400FA68BB6813401A04FB68D943BB680B40EE
:10CB64001A437B681A6100BF1437BD4680BC704706
:10CB740090B585B002AF00F081FCFFF72FFE4FF4B3
:10CB84004050FFF739FE00F0A3F800F0F1F900F08F
:10CB9400D7F900F0E3F800F053F907F02FFE444909
:10CBA4004448FFF7C9FF4448FFF793FE4248FFF7A4
:10CBB40089FF4148FFF793FF4FF480513E48FFF748
:10CBC400A6FEAA213C48FFF73BFF0023FB712EE0A1
:10CBD400FB7903F10802FB799B00384931F82210F4
:10CBE400374A22F81310FB790833FA79920001329C
:10CBF40032499B000B445988314B23F81210FA79BF
:10CC0400FB799B0002332D4931F822102C4A22F87B
:10CC14001310FB79FA799200033228499B000B44E4
:10CC24005988274B23F81210FB790133FB71FB79E8
:10CC3400072BCDD9234C2448FFF740FE034610228E
:10CC44000092224603212148FFF760FC03211F487C
:10CC5400FFF796FC1C48FFF722FE1B48FFF7FEFD7A
:10CC640030BF00BF1848FFF708FE0346002BF9D178
:10CC740040F201110F48FFF741FF00BF40F20111DC
:10CC84000C48FFF74AFF0023BB710BE0BB791A0382
:10CC9400BB79C3F107031B071A43064B1A61BB791F
:10CCA4000133BB71BB79072BF0D930BF00BFFCE760
:10CCB40002000204000C01400004004000000020B7
:10CCC4008001002088010020003001400000024063
:10CCD40080B500AF0220FFF7A1FD00BFFFF7B2FD52
:10CCE4000346022BFAD1FFF769FC00BFFFF774FC7F
:10CCF4000346012BFAD14FF4E0114FF48030FFF7D3
:10CD04000DFDFFF7EBFC00BFFFF7F6FC0346012B1C
:10CD1400FAD10020FFF792FC4FF48060FFF7A2FCE9
:10CD24000020FFF7B3FC0220FFF768FC00BFFFF709
:10CD340079FC0346082BFAD1074805F0A9FA0F201D
:10CD440000F0B2FB0346002B01D000F03DF90020B7
:10CD5400FFF7B0FC00BF80BD00A24A0480B590B0CC
:10CD640000AF07F1180328220021184608F0A2F9A1
:10CD74003B1D00221A605A609A60DA601A614FF40F
:10CD84008050FFF713FD0420FFF710FD4AF2A003C3
:10CD94007B600923BB600323FB6000233B613B1DD5
:10CDA4001946244802F022FB102203212248FFF7EF
:10CDB400BDFA002203212048FFF786FB002203214D
:10CDC4001D48FFF7D7FA002203211B48FFF7F4FAA6
:10CDD400802203211848FFF711FB4FF480720321CE
:10CDE4001548FFF72DFB4FF4806203211248FFF72B
:10CDF40049FB0023BB614FF48273FB614FF4006372
:10CE04003B6200237B620023BB624FF40073FB622E
:10CE140010233B6300237B630023BB630A23FB6370
:10CE240007F118031946054802F067FB00BF4037B5
:10CE3400BD4680BD000801400000024000300140B2
:10CE440080B592B000AF07F1340300221A605A6033
:10CE54009A60DA601A6107F114032022002118464F
:10CE640008F028F93B4600221A605A609A60DA609A
:10CE74001A610220FFF782FCFFF7D2F90346002271
:10CE840000211846FFF720FA034619461D20FFF734
:10CE9400F1F91D20FFF7D2F90023BB860023BB6301
:10CEA400244BFB6300233B6407F1340319462248F7
:10CEB40002F0E0FB2048FFF71BFD00211E48FFF7AE
:10CEC400CCFD4FF480511C48FFF776FD60237B6155
:10CED4000023BB610023FB6142F210733B62002319
:10CEE4007B6207F114031A464FF48051124802F092
:10CEF40037FC4FF480511048FFF71AFD00210E480B
:10CF0400FFF7BFFD0C48FFF7CEFD0820FFF74EFCEE
:10CF140040F202233B6009237B600223BB600023B1
:10CF2400FB603B461946054802F060FA00BF4837EB
:10CF3400BD4680BD3075F0FF00040040000C014088
:10CF440080B500AF0120FFF701FCFFF769F9034644
:10CF5400002200211846FFF7B7F9034619460D20B1
:10CF6400FFF788F90D20FFF769F900BF80BD0000C5
:10CF740080B586B000AF3B1D00221A605A609A60EB
:10CF8400DA601A612020FFF711FC0420FFF70EFC81
:10CF94000820FFF70BFC0A490A48FFF7BEFD084BBF
:10CFA4007B600123BB600223FB6000233B613B1DCC
:10CFB4001946044802F01AFA00BF1837BD4680BD6E
:10CFC40073017204000C014080B400AF72B600BF5C
:10CFD400FEE7000080B485B000AF154B9B69144A8E
:10CFE40043F001039361124B9B6903F00103BB609F
:10CFF400BB680F4BDB690E4A43F08053D3610C4B83
:10D00400DB6903F080537B607B680A4B5B68FB60E1
:10D01400FB6823F0E063FB60FB6843F00073FB6094
:10D02400044AFB68536000BF1437BD4680BC704798
:10D03400001002400000014080B483B000AF78606B
:10D0440039603B68013B0A4AD35C1A467B68134447
:10D054001B683A68013A06498A5C11467A680A44B0
:10D0640043F00103136000BF0C37BD4680BC70471A
:10D074008451010880B483B000AF786039603B68A4
:10D08400013B0A4AD35C1A467B6813441B683A681E
:10D09400013A06498A5C11467A680A4423F001037E
:10D0A400136000BF0C37BD4680BC70478451010833
:10D0B40080B485B000AFF860B9607A60BB68013BAA
:10D0C4000B4AD35C1A46FB6813445B681B0C1B04B5
:10D0D400BA68013A06498A5C1146FA680A4411465C
:10D0E4007A6813434B6000BF1437BD4680BC704759
:10D0F4008451010880B485B000AFF860B9607A60EB
:10D104003B60BB69102B14D1BB68013B154AD35C4F
:10D114001A46FB6813441A467B68D360BB68013B1C
:10D12400104AD35C1A46FB6813441A463B68936062
:10D1340013E0BB68013B0B4AD35C1A46FB681344FB
:10D144001A467B689360BB68013B064AD35C1A4667
:10D15400FB6813441A463B68D36000BF1437BD46CE
:10D1640080BC70478451010880B483B000AF7860FC
:10D174007B681B6803F40073B3F5007F0CBF0123C5
:10D184000023DBB218460C37BD4680BC704780B420
:10D1940083B000AF78607B684FF400725A6000BFC0
:10D1A4000C37BD4680BC704780B483B000AF786054
:10D1B4007B689B6803F08003802B01D1012300E08E
:10D1C400002318460C37BD4680BC704780B483B03A
:10D1D40000AF78607B680C3318460C37BD4680BCC2
:10D1E400704780B483B000AF78607B686FF0010251
:10D1F4001A6100BF0C37BD4680BC704780B483B051
:10D2040000AF78607B681B6903F00103012B01D137
:10D21400012300E0002318460C37BD4680BC70474C
:10D2240080B483B000AF78607B686FF010021A613D
:10D2340000BF0C37BD4680BC704780B483B000AFDC
:10D2440078607B681B6903F01003102B01D1012364
:10D2540000E0002318460C37BD4680BC704780B4FC
:10D2640083B000AF786039603B681B0A9AB27B6870
:10D274001A6100BF0C37BD4680BC704780B483B0D0
:10D2840000AF786039603B681B0A9AB27B685A61C8
:10D2940000BF0C37BD4680BC704780B400AFFEE7CA
:10D2A40080B400AFFEE780B400AFFEE780B400AF07
:10D2B400FEE780B400AFFEE780B400AF00BFBD4618
:10D2C40080BC704780B400AF00BFBD4680BC7047CF
:10D2D40080B400AF00BFBD4680BC704780B500AFCE
:10D2E40000F012F900BF80BD80B500AF0A48FFF717
:10D2F4003BFF0346002B0CD00748FFF748FF00BF55
:10D304000648FFF751FF0346002BF9D1044B0022D6
:10D314001A7000BF80BD00BF000002400030014011
:10D324007D01002080B500AF024800F031FB00BF52
:10D3340080BD00BF8C06002090B583B002AF2D489D
:10D34400FFF75CFF0346002B46D040F201112A4848
:10D35400FFF785FF294B1B781A03284B1B78C3F171
:10D3640007031B071A43244B1A612248FFF739FFAE
:10D3740040F201112048FFF781FF204B1B78013355
:10D38400DAB21E4B1A701D4B1B78072B02D91B4BAC
:10D3940000221A701A4B01221A7003211948FFF750
:10D3A40069FE164B1B789B005B00174A13441C460E
:10D3B4001648FFF70BFF0346102200922246032172
:10D3C4001048FFF797FE042203210E48FFF770FE72
:10D3D40003210C48FFF730FE0D48FFF72EFF0346EC
:10D3E400002B02D00348FFF71BFF00BF0437BD46E4
:10D3F40090BD00BF00040040000C01407C010020EF
:10D404007D01002000000240800100200030014026
:10D414000008004080B400AF034B044A9A6000BF88
:10D42400BD4680BC704700BF00ED00E000C00008AE
:10D43400FFF7F0FF0B480C490C4A002302E0D458D4
:10D44400C4500433C4188C42F9D3094A094C00234C
:10D4540001E013600432A242FBD307F033FEFFF76E
:10D4640087FB70470000002060010020D0510108B4
:10D4740060010020EC0B0020FEE7000080B500AF47
:10D48400084B1B68074A43F010031360032000F0A5
:10D4940019F90F2000F008F8FFF79CFD0023184647
:10D4A40080BD00BF0020024080B582B000AF78602C
:10D4B400124B1A68124B1B7819464FF47A73B3FB5C
:10D4C400F1F3B2FBF3F3184600F031F90346002BF5
:10D4D40001D001230EE07B680F2B0AD80022796863
:10D4E4004FF0FF3000F0F9F8064A7B681360002320
:10D4F40000E0012318460837BD4680BD40000020E7
:10D50400480000204400002080B400AF054B1B7885
:10D514001A46054B1B681344034A136000BFBD46FB
:10D5240080BC704748000020C001002080B485B052
:10D5340000AF78607B6803F00703FB600C4BDB688B
:10D54400BB60BA684FF6FF031340BB60FB681A0266
:10D55400BB68134343F0BF6343F40033BB60044A26
:10D56400BB68D36000BF1437BD4680BC704700BFA2
:10D5740000ED00E080B400AF044BDB681B0A03F04D
:10D5840007031846BD4680BC704700BF00ED00E0AD
:10D5940080B483B000AF0346FB7197F90730002BCA
:10D5A4000BDBFB7903F01F02064997F907305B098F
:10D5B400012000FA02F241F8232000BF0C37BD46D7
:10D5C40080BC704700E100E080B483B000AF034644
:10D5D4003960FB7197F90730002B0ADB3B68DAB23C
:10D5E4000C4997F907301201D2B20B4483F8002397
:10D5F4000AE03B68DAB20849FB7903F00F03043B05
:10D604001201D2B20B441A7600BF0C37BD4680BC5F
:10D61400704700BF00E100E000ED00E080B489B095
:10D6240000AFF860B9607A60FB6803F00703FB6140
:10D63400FB69C3F10703042B28BF0423BB61FB6907
:10D644000433062B02D9FB69033B00E000237B6112
:10D654004FF0FF32BB6902FA03F3DA43BB681A40A6
:10D664007B699A404FF0FF317B6901FA03F3D94398
:10D674007B680B40134318462437BD4680BC704773
:10D6840080B582B000AF78607B68013BB3F1807FE6
:10D6940001D301230FE00A4A7B68013B53600F2149
:10D6A4004FF0FF30FFF790FF054B00229A60044BC8
:10D6B40007221A60002318460837BD4680BD00BF04
:10D6C40010E000E080B582B000AF78607868FFF7C2
:10D6D4002DFF00BF0837BD4680BD80B586B000AFC2
:10D6E4000346B9607A60FB7300237B61FFF742FF56
:10D6F40078617A68B9687869FFF790FF024697F90C
:10D704000F3011461846FFF75FFF00BF1837BD46BC
:10D7140080BD80B582B000AF0346FB7197F9073036
:10D724001846FFF735FF00BF0837BD4680BD80B5FA
:10D7340082B000AF78607868FFF7A2FF034618460E
:10D744000837BD4680BDF0B58BB006AF78607B6806
:10D75400002B01D10123F1E07B6893F8A932DBB2FD
:10D76400002B06D17B68002283F8A822786807F092
:10D77400E1F97B68032283F8A9227B681B681846B9
:10D7840002F0FAF97B681B683B607E686D4606F11F
:10D7940010040FCC0FC523682B60331D0ECB3868E3
:10D7A40002F0C4F90346002B05D07B68022283F8FB
:10D7B400A9220123C2E07B681B680021184602F0FD
:10D7C400F5F90023FB7340E0FB7B79685A1C134690
:10D7D4009B001344DB000B44013301221A70FB7BD2
:10D7E40079685A1C13469B001344DB000B44FA7BF4
:10D7F4001A70FB7B79685A1C13469B001344DB00A8
:10D804000B44033300221A70FA7B796813469B0099
:10D814001344DB000B44383300221A60FA7B796826
:10D8240013469B001344DB000B443C3300221A6074
:10D83400FA7B796813469B001344DB000B444033A6
:10D8440000221A60FB7B0133FB73FA7B7B685B6805
:10D854009A42B9D30023FB7344E0FA7B79681346F8
:10D864009B001344DB000B4403F2691300221A707B
:10D87400FA7B796813469B001344DB000B4403F5E1
:10D88400B473FA7B1A70FA7B796813469B001344CD
:10D89400DB000B4403F26B1300221A70FA7B7968E5
:10D8A40013469B001344DB000B4403F5BC730022B6
:10D8B4001A60FA7B796813469B001344DB000B441F
:10D8C40003F5BE7300221A60FA7B796813469B0045
:10D8D4001344DB000B4403F5C07300221A60FB7B86
:10D8E4000133FB73FA7B7B685B689A42B5D37B6830
:10D8F4001B683B607E686D4606F110040FCC0FC5B3
:10D9040023682B60331D0ECB386802F05BF90346A5
:10D91400002B05D07B68022283F8A92201230DE0A5
:10D924007B68002283F824207B68012283F8A922E3
:10D934007B681B68184604F0F2FB00231846143772
:10D94400BD46F0BD80B582B000AF78607B6893F8C7
:10D95400A832012B01D1022316E07B68012283F84F
:10D96400A8227B681B68184602F0F0F80121786849
:10D9740007F069FB7B681B68184604F0C6FB7B68EC
:10D98400002283F8A822002318460837BD4680BD2C
:10D9940080B588B000AF78607B681B68184604F0D7
:10D9A400C8FBB861BB6903F40043002B03D078685B
:10D9B40000F048FB19E1BB6903F48063002B13D02A
:10D9C4007B681B68B3F844309AB27B681B6822F406
:10D9D400806292B2A3F84420786807F026F9002107
:10D9E400786800F005F900E1BB6903F48043002B7B
:10D9F4000CD07B681B68B3F844309AB27B681B6810
:10DA040022F4804292B2A3F84420EEE0BB6903F40E
:10DA14000053002B0CD07B681B68B3F844309AB2D7
:10DA24007B681B6822F4005292B2A3F84420DCE025
:10DA3400BB6903F48053002B27D07B681B68B3F8C1
:10DA440040309AB27B681B6822F0040292B2A3F8B9
:10DA540040207B681B68B3F840309AB27B681B682F
:10DA640022F0080292B2A3F84020786807F016F971
:10DA74007B681B68B3F844309AB27B681B6822F455
:10DA8400805292B2A3F84420AFE0BB6903F4006370
:10DA9400002B00F083800023FB7710E07B681B6879
:10DAA4001A46FB7F9B001A44FB7F128892B25B00EC
:10DAB40020333B4423F8182CFB7F0133FB77FB7F97
:10DAC400072BEBD97B681B68B3F840309AB27B68AC
:10DAD4001B6842F0010292B2A3F840207B681B68E5
:10DAE400B3F840309AB27B681B6822F0010292B20C
:10DAF400A3F8402000BF7B681B68B3F844309BB296
:10DB040003F48063002BF6D07B681B68B3F84430C1
:10DB14009AB27B681B6822F4806292B2A3F8442014
:10DB24000023FB770FE0FB7F7A6812681146FA7FC7
:10DB340092000A445B0020333B4433F8183C1380C2
:10DB4400FB7F0133FB77FB7F072BECD97B681B68DA
:10DB5400B3F840309AB27B681B6842F0080292B274
:10DB6400A3F840207B681B68B3F844309AB27B6802
:10DB74001B6822F4006292B2A3F844207B681B68FD
:10DB8400B3F840309AB27B681B6842F0040292B248
:10DB9400A3F84020786807F067F826E0BB6903F42F
:10DBA4000073002B0FD07B681B68B3F844309AB223
:10DBB4007B681B6822F4007292B2A3F84420786850
:10DBC40007F025F811E0BB6903F48073002B0CD037
:10DBD4007B681B68B3F844309AB27B681B6822F4F4
:10DBE400807292B2A3F8442000BF2037BD4680BDA6
:10DBF40080B582B000AF78600B46FB707B6893F809
:10DC0400A832012B01D1022313E07B68012283F89F
:10DC1400A8227B68FA7883F824207B681B68FA784A
:10DC24001146184604F05EFA7B68002283F8A822A5
:10DC3400002318460837BD4680BD80B584B000AFC8
:10DC44007860084611461A460346FB700B463B8033
:10DC54001346BB700023FB7297F90330002B0EDAD6
:10DC6400FB7803F007035A1C13469B001344DB00A4
:10DC74007A681344FB60FB6801225A700EE0FB785B
:10DC840003F0070213469B001344DB0003F5B4734F
:10DC94007A681344FB60FB6800225A70FB7803F037
:10DCA4000703DAB2FB681A703A88FB681A61FB68EA
:10DCB400BA78DA70BB78022B02D1FB6800221A71A1
:10DCC4007B6893F8A832012B01D102230EE07B6814
:10DCD400012283F8A8227B681B68F968184601F0C2
:10DCE400A7FF7B68002283F8A822FB7A1846103726
:10DCF400BD4680BD80B584B000AF78600B46FB7034
:10DD040097F90330002B0EDAFB7803F007035A1C53
:10DD140013469B001344DB007A681344FB60FB68E2
:10DD240001225A700EE0FB7803F0070213469B00B1
:10DD34001344DB0003F5B4737A681344FB60FB6897
:10DD440000225A70FB7803F00703DAB2FB681A70FA
:10DD54007B6893F8A832012B01D102230EE07B6883
:10DD6400012283F8A8227B681B68F968184602F030
:10DD74001FFB7B68002283F8A82200231846103773
:10DD8400BD4680BD80B586B000AFF8607A603B6068
:10DD94000B46FB72FB7A03F0070213469B00134405
:10DDA400DB0003F5B473FA6813447B617B697A681A
:10DDB4005A617B693A689A617B690022DA617B69FE
:10DDC40000225A70FB7A03F00703DAB27B691A70F7
:10DDD400FB681B687969184602F0D6FC00231846D4
:10DDE4001837BD4680BD80B483B000AF78600B4661
:10DDF400FB70FB7803F00702796813469B00134419
:10DE0400DB000B4403F5C2731B6818460C37BD4690
:10DE140080BC704780B586B000AFF8607A603B6024
:10DE24000B46FB72FB7A03F007035A1C13469B0054
:10DE34001344DB00FA6813447B617B697A685A6196
:10DE44007B693A689A617B69012283F824207B69A3
:10DE54003A681A627B690022DA617B6901225A708E
:10DE6400FB7A03F00703DAB27B691A70FB681B685C
:10DE74007969184602F088FC002318461837BD4615
:10DE840080BD80B584B000AF78600B46FB70FB7832
:10DE940003F007027B685B689A4201D901234CE0D6
:10DEA40097F90330002B0EDAFB7803F007035A1CB2
:10DEB40013469B001344DB007A681344FB60FB6841
:10DEC40001225A700CE0FA7813469B001344DB00DD
:10DED40003F5B4737A681344FB60FB6800225A703C
:10DEE400FB6801229A70FB7803F00703DAB2FB683F
:10DEF4001A707B6893F8A832012B01D102231CE02D
:10DF04007B68012283F8A8227B681B68F96818469D
:10DF140003F0EBFFFB7803F00703002B08D17B68C9
:10DF24001A687B6803F52C731946104604F010F93F
:10DF34007B68002283F8A822002318461037BD46C8
:10DF440080BD80B584B000AF78600B46FB70FB7871
:10DF540003F00F027B685B689A4201D9012340E019
:10DF640097F90330002B0EDAFB7803F007035A1CF1
:10DF740013469B001344DB007A681344FB60FB6880
:10DF840001225A700EE0FB7803F0070213469B004F
:10DF94001344DB0003F5B4737A681344FB60FB6835
:10DFA40000225A70FB6800229A70FB7803F0070382
:10DFB400DAB2FB681A707B6893F8A832012B01D19E
:10DFC40002230EE07B68012283F8A8227B681B6889
:10DFD400F968184603F0D9FF7B68002283F8A82269
:10DFE400002318461037BD4680BD80B582B000AF0F
:10DFF40078600B46FB707B6893F8A832012B01D143
:10E0040002231BE07B68012283F8A82297F90330DE
:10E01400002B09DA7B681A68FB7803F007031946BA
:10E02400104601F0EFFD04E07B681B68184601F020
:10E03400F4FD7B68002283F8A822002318460837E1
:10E04400BD4680BD80B596B000AF7860BFE37B6805
:10E054001B68B3F84430A7F84E30B7F84E30DBB243
:10E0640003F00F0387F84D3097F84D30002B40F044
:10E074007981B7F84E3003F01003002B52D17B683E
:10E084001B681B889BB223F4E14323F07003FB81DC
:10E094007B681A68FB896FEA43436FEA53439BB278
:10E0A40013807B6828337B657B681B68B3F850302A
:10E0B4009BB21A467B6D1B78DB00134402335B0072
:10E0C4007A681268134403F580631B88C3F309025A
:10E0D4007B6DDA617B6D5A697B6DDB691A447B6DFC
:10E0E4005A610021786806F078FD7B6893F8243043
:10E0F400DBB2002B00F06B837B6D9B69002B40F03F
:10E1040066837B6893F82430DBB263F07F03DAB272
:10E114007B681B6892B2A3F84C207B68002283F8CA
:10E12400242054E37B6803F5B4737B657B681B6828
:10E134001B88A7F84A30B7F84A3003F40063002B71
:10E1440034D07B681B68B3F850309BB21A467B6DA1
:10E154001B78DB00134406335B007A6812681344AF
:10E1640003F580631B88C3F309027B6DDA617B6866
:10E1740018687B6803F52C717B6DDA887B6DDB692D
:10E184009BB204F035F87B681B681B889AB240F692
:10E194008F7313403B827B681B683A8A42F080028B
:10E1A40092B21A80786806F0EBFC10E3B7F94A30B3
:10E1B400002B80F20C837B681B681B889AB240F6A4
:10E1C4008F731340FB837B681B68FA8B42F08002D9
:10E1D40092B21A807B681B68B3F850309BB21A461F
:10E1E4007B6D1B78DB00134406335B007A6812688E
:10E1F400134403F580631B88C3F309027B6DDA6162
:10E204007B6DDB69002B19D07B6D5B69002B15D00E
:10E214007B6818687B6D59697B6DDA887B6DDB6977
:10E224009BB203F0E5FF7B6D5A697B6DDB691A4491
:10E234007B6D5A610021786806F0B4FC7B681B682A
:10E244001B88A7F84A30B7F84A3003F40063002B60
:10E2540040F0BD82B7F84A3003F44053B3F5405F51
:10E2640000F0B5827B681B68BB617B681B68B3F8F0
:10E2740050309BB21A46BB691344BB61BB6903F2BD
:10E284000C437B617B691B889BB2C3F309039AB27D
:10E294007B691A807B6D1B693E2B1DD97B6D1B69C5
:10E2A4005B097B647B6D1B6903F01F03002B02D1A8
:10E2B4007B6C013B7B647B691B889AB27B6C9BB251
:10E2C4009B029BB213439BB26FEA43436FEA5343EF
:10E2D4009AB27B691A8026E07B6D1B69002B0AD1F8
:10E2E4007B691B889BB26FEA43436FEA53439AB23C
:10E2F4007B691A8017E07B6D1B695B087B647B6D0F
:10E304001B6903F00103002B02D07B6C01337B6497
:10E314007B691B889AB27B6C9BB29B029BB21343B2
:10E324009AB27B691A807B681B681B889BB223F4B2
:10E33400804323F070037B827B8A83F480537B8247
:10E344007B8A83F400537B827B681A687B8A43F060
:10E354007F4343F47F0343F4004343F080039BB2C1
:10E36400138034E27B681B681A4697F84D309B0093
:10E3740013441B88A7F84A30B7F94A30002B80F2BF
:10E38400FC807B681B681A4697F84D309B00134449
:10E394001B889AB240F68F731340A7F848307B6805
:10E3A4001B681A4697F84D309B001344B7F8482071
:10E3B40042F0800292B21A8097F84D2013469B00D7
:10E3C4001344DB0003F5B4737A6813447B657B6DF7
:10E3D4001B7B002B25D17B681B68B3F850309BB2A4
:10E3E4001A467B6D1B78DB00134406335B007A68A6
:10E3F4001268134403F580631B88C3F30903A7F869
:10E404005030B7F85030002B00F092807B681868C9
:10E414007B6D59697B6DDA88B7F8503003F0E8FEFC
:10E4240086E07B6DDB78022B0AD1B7F84A301A46B6
:10E43400796D786800F0D9F90346A7F8503077E091
:10E444007B681B681A467B6D1B789B0013441B88F2
:10E454009BB223F4E04323F07003A7F852307B68A7
:10E464001B681A467B6D1B789B001A44B7F8523020
:10E4740043F07F4343F47F0343F4004343F0C0037A
:10E484009BB213807B681B681A467B6D1B789B00CC
:10E4940013441B889BB203F48043002B24D07B6875
:10E4A4001B68B3F850309BB21A467B6D1B78DB00B7
:10E4B400134402335B007A681268134403F58063E3
:10E4C4001B88C3F30903A7F85030B7F85030002B6A
:10E4D4002ED07B6818687B6D59697B6D1A89B7F8F3
:10E4E400503003F085FE23E07B681B68B3F850309E
:10E4F4009BB21A467B6D1B78DB00134406335B002A
:10E504007A681268134403F580631B88C3F3090314
:10E51400A7F85030B7F85030002B09D07B68186842
:10E524007B6D59697B6D5A89B7F8503003F060FEF2
:10E534007B6DDA69B7F850301A447B6DDA617B6D14
:10E544005A69B7F850301A447B6D5A617B6D9B69E8
:10E55400002B05D0B7F850207B6D1B699A4206D278
:10E564007B6D1B781946786806F01CFB05E07B6818
:10E574001B68796D184602F007F9B7F84A3003F0C2
:10E584008003002B00F0238197F84D305A1C13466A
:10E594009B001344DB007A6813447B657B681B682B
:10E5A4001A4697F84D309B0013441B889BB223F402
:10E5B400E14323F07003A7F842307B681B681A46D6
:10E5C40097F84D309B001A44B7F842306FEA434342
:10E5D4006FEA53439BB213807B6DDB78012B40F0D1
:10E5E400A2807B6D00229A617B6D1B7B002B00F067
:10E5F4009380B7F84A3003F04003002B46D07B6D7C
:10E604005B78002B26D17B681B687B627B681B6868
:10E61400B3F850309BB21A467B6A13447B627B6D1D
:10E624001B781A017B6A134403F204433B623B6A7E
:10E634001B889BB2C3F309039AB23B6A1A803B6AF4
:10E644001B889BB26FEA43436FEA53439AB23B6A17
:10E654001A8061E07B6D5B78012B5DD17B681B6860
:10E66400FB627B681B68B3F850309BB21A46FB6AA6
:10E674001344FB627B6D1B781A01FB6A134403F29B
:10E684000443BB62BB6A00221A8045E07B681B68B6
:10E69400FB637B6D5B78002B26D17B681B687B63F7
:10E6A4007B681B68B3F850309BB21A467B6B1344EB
:10E6B4007B637B6D1B781A017B6B134403F20C4361
:10E6C4003B633B6B1B889BB2C3F309039AB23B6B5E
:10E6D4001A803B6B1B889BB26FEA43436FEA534338
:10E6E4009AB23B6B1A8017E07B6D5B78012B13D1D8
:10E6F4007B681B68B3F850309BB21A46FB6B13441B
:10E70400FB637B6D1B781A01FB6B134403F20C4310
:10E71400BB63BB6B00221A807B6D1B78194678683B
:10E7240006F05BFA53E0B7F84A3003F48073002B29
:10E7340046D17B681B68B3F850309BB21A467B6D98
:10E744001B78DB00134402335B007A6812681344BD
:10E7540003F580631B88C3F30903A7F840307B6D7E
:10E764009A69B7F840309A4207D97B6D9A69B7F82D
:10E774004030D21A7B6D9A6102E07B6D00229A616F
:10E784007B6D9B69002B06D17B6D1B7819467868DD
:10E7940006F023FA1BE07B6D5A69B7F840301A443F
:10E7A4007B6D5A617B6DDA69B7F840301A447B6D32
:10E7B400DA617B681B68796D184601F0E5FF06E0B5
:10E7C400B7F84A301A46796D786800F01BF97B680F
:10E7D4001B68B3F844309BB21BB2002BFFF637AC76
:10E7E400002318465837BD4680BD80B588B000AFB9
:10E7F400F860B9601346FB80FB8803F48043002B68
:10E804007ED0FB681B68B3F850309BB21A46BB68D5
:10E814001B78DB00134402335B00FA68126813446C
:10E8240003F580631B88C3F309037B83BB689A6980
:10E834007B8B9A4206D3BB689A697B8BD21ABB68DE
:10E844009A6102E0BB6800229A61BB689B69002B55
:10E8540023D1FB681B681A46BB681B789B001344D2
:10E864001B889BB223F4804323F070033B833B8BD0
:10E8740083F400533B83FB681B681A46BB681B7810
:10E884009B001A443B8B43F07F4343F47F0343F4E0
:10E89400004343F080039BB21380FB8803F04003E2
:10E8A400002B1FD0FB681B681A46BB681B789B00B3
:10E8B40013441B889BB223F4E04323F07003FB82D0
:10E8C400FB681B681A46BB681B789B001A44FB8ACA
:10E8D40043F07F4343F47F0343F4004343F0C00316
:10E8E4009BB213807B8B002B00F08780FB68186839
:10E8F400BB685969BB681A897B8B03F079FC7CE09F
:10E90400FB681B68B3F850309BB21A46BB681B788F
:10E91400DB00134406335B00FA681268134403F502
:10E9240080631B88C3F309037B83BB689A697B8B71
:10E934009A4206D3BB689A697B8BD21ABB689A61E8
:10E9440002E0BB6800229A61BB689B69002B23D15B
:10E95400FB681B681A46BB681B789B0013441B8822
:10E964009BB223F4804323F07003FB83FB8B83F47B
:10E974000053FB83FB681B681A46BB681B789B002B
:10E984001A44FB8B43F07F4343F47F0343F4004377
:10E9940043F080039BB21380FB8803F04003002BF9
:10E9A4001FD1FB681B681A46BB681B789B00134485
:10E9B4001B889BB223F4E04323F07003BB83FB6802
:10E9C4001B681A46BB681B789B001A44BB8B43F038
:10E9D4007F4343F47F0343F4004343F0C0039BB2FB
:10E9E40013807B8B002B08D0FB681868BB685969BF
:10E9F400BB685A897B8B03F0FBFB7B8B1846203763
:10EA0400BD4680BD80B5A4B000AFF860B9601346C0
:10EA1400FB80FB8803F04003002B00F0DD81FB68E2
:10EA24001B68B3F850309BB21A46BB681B78DB00F6
:10EA3400134402335B00FA681268134403F58063DD
:10EA44001B88C3F30903A7F88630BB689A69B7F833
:10EA540086309A4207D9BB689A69B7F88630D21AC9
:10EA6400BB689A6102E0BB6800229A61BB689B693B
:10EA7400002B40F0B980BB685B78002B26D1FB6883
:10EA84001B68FB62FB681B68B3F850309BB21A46E4
:10EA9400FB6A1344FB62BB681B781A01FB6A1344CC
:10EAA40003F20443BB62BB6A1B889BB2C3F3090332
:10EAB4009AB2BB6A1A80BB6A1B889BB26FEA434353
:10EAC4006FEA53439AB2BB6A1A801AE0BB685B7858
:10EAD400012B16D1FB681B687B63FB681B68B3F8CA
:10EAE40050309BB21A467B6B13447B63BB681B7824
:10EAF4001A017B6B134403F204433B633B6B002218
:10EB04001A80FB681B687B62BB685B78002B26D18C
:10EB1400FB681B68FB61FB681B68B3F850309BB251
:10EB24001A46FB691344FB61BB681B781A01FB6935
:10EB3400134403F20C43BB61BB691B889BB2C3F350
:10EB440009039AB2BB691A80BB691B889BB26FEA3E
:10EB540043436FEA53439AB2BB691A8017E0BB6818
:10EB64005B78012B13D1FB681B68B3F850309BB260
:10EB74001A467B6A13447B62BB681B781A017B6A62
:10EB8400134403F20C433B623B6A00221A80BB68C5
:10EB94001B781946F86806F020F8FB8803F48043D4
:10EBA400002B00F0FC82FB681B681A46BB681B78CC
:10EBB4009B0013441B889BB223F4E04323F07003AF
:10EBC400FB82FB681B681A46BB681B789B001A44CF
:10EBD400FB8A43F07F4343F47F0343F4404343F011
:10EBE40080039BB21380DAE2FB8803F48043002B9A
:10EBF40021D0FB681B681A46BB681B789B00134432
:10EC04001B889BB223F4E04323F07003A7F88A30F7
:10EC1400FB681B681A46BB681B789B001A44B7F84C
:10EC24008A3043F07F4343F47F0343F4404343F08B
:10EC340080039BB21380BB6893F82430012B40F00F
:10EC4400AE82BB685A69B7F886301A44BB685A6109
:10EC5400BB68DA69B7F886301A44BB68DA61BB6806
:10EC64001A6ABB681B699A420BD3BB681B69C7F855
:10EC74008C30BB681A6AD7F88C30D21ABB681A6217
:10EC840017E0BB681B6A002B08D1B7F88630C7F8B9
:10EC94008C30BB68002283F824200AE0BB68002281
:10ECA40083F82420BB681B6AC7F88C30BB68002239
:10ECB4001A62BB685B78002B65D1FB681B68FB6339
:10ECC400FB681B68B3F850309BB21A46FB6B1344C5
:10ECD400FB63BB681B781A01FB6B134403F2044308
:10ECE400BB63BB6B1B889BB2C3F309039AB2BB6BB8
:10ECF4001A80D7F88C303E2B1DD9D7F88C305B099D
:10ED0400BB64D7F88C3003F01F03002B02D1BB6C1B
:10ED1400013BBB64BB6B1B889AB2BB6C9BB29B026E
:10ED24009BB213439BB26FEA43436FEA53439AB2D5
:10ED3400BB6B1A8044E0D7F88C30002B0AD1BB6B34
:10ED44001B889BB26FEA43436FEA53439AB2BB6B8F
:10ED54001A8035E0D7F88C305B08BB64D7F88C3068
:10ED640003F00103002B02D0BB6C0133BB64BB6B0B
:10ED74001B889AB2BB6C9BB29B029BB213439AB2A0
:10ED8400BB6B1A801CE0BB685B78012B18D1FB6855
:10ED94001B687B64FB681B68B3F850309BB21A464F
:10EDA4007B6C13447B64BB681B781A017B6C134433
:10EDB40003F204433B64D7F88C309AB23B6C1A805C
:10EDC400FB681868BB685969BB681A89D7F88C3026
:10EDD4009BB203F0C8F9E2E1FB681B68B3F850305A
:10EDE4009BB21A46BB681B78DB00134406335B00F6
:10EDF400FA681268134403F580631B88C3F309039C
:10EE0400A7F88630BB689A69B7F886309A4207D368
:10EE1400BB689A69B7F88630D21ABB689A6102E077
:10EE2400BB6800229A61BB689B69002B40F0C080DC
:10EE3400BB685B78002B26D1FB681B68FB67FB680B
:10EE44001B68B3F850309BB21A46FB6F1344FB6740
:10EE5400BB681B781A01FB6F134403F20443BB67BE
:10EE6400BB6F1B889BB2C3F309039AB2BB6F1A80B2
:10EE7400BB6F1B889BB26FEA43436FEA53439AB25A
:10EE8400BB6F1A801AE0BB685B78012B16D1FB6854
:10EE94001B687B66FB681B68B3F850309BB21A464C
:10EEA4007B6E13447B66BB681B781A017B6E13442C
:10EEB40003F204433B663B6E00221A80FB681B6826
:10EEC4007B67BB685B78002B2BD1FB681B68FB66F8
:10EED400FB681B68B3F850309BB21A46FB6E1344B0
:10EEE400FB66BB681B781A01FB6E134403F20C43E8
:10EEF400C7F88030D7F880301B889BB2C3F309036E
:10EF04009AB2D7F880301A80D7F880301B889BB229
:10EF14006FEA43436FEA53439AB2D7F880301A80BA
:10EF240017E0BB685B78012B13D1FB681B68B3F84F
:10EF340050309BB21A467B6F13447B67BB681B78C7
:10EF44001A017B6F134403F20C433B673B6F0022AF
:10EF54001A80BB681B781946F86805F03EFEFB88EA
:10EF640003F48043002B40F01A81FB681B681A46A7
:10EF7400BB681B789B0013441B889BB223F4E043BB
:10EF840023F07003A7F88830FB681B681A46BB6837
:10EF94001B789B001A44B7F8883043F07F4343F44E
:10EFA4007F0343F4404343F080039BB21380F6E0B5
:10EFB400FB8803F48043002B21D1FB681B681A46AD
:10EFC400BB681B789B0013441B889BB223F4E0436B
:10EFD40023F07003A7F84E30FB681B681A46BB6821
:10EFE4001B789B001A44B7F84E3043F07F4343F438
:10EFF4007F0343F4404343F080039BB21380BB6818
:10F0040093F82430012B40F0CA80BB685A69B7F8E2
:10F0140086301A44BB685A61BB68DA69B7F886302F
:10F024001A44BB68DA61BB681A6ABB681B699A42F6
:10F034000BD3BB681B69C7F88C30BB681A6AD7F856
:10F044008C30D21ABB681A6217E0BB681B6A002BAB
:10F0540008D1B7F88630C7F88C30BB68002283F833
:10F0640024200AE0BB681B6AC7F88C30BB68002206
:10F074001A62BB68002283F82420FB681B687B6546
:10F08400BB685B78002B65D1FB681B68FB65FB687C
:10F094001B68B3F850309BB21A46FB6D1344FB65F2
:10F0A400BB681B781A01FB6D134403F20C43BB6568
:10F0B400BB6D1B889BB2C3F309039AB2BB6D1A8064
:10F0C400D7F88C303E2B1DD9D7F88C305B09BB6642
:10F0D400D7F88C3003F01F03002B02D1BB6E013B29
:10F0E400BB66BB6D1B889AB2BB6E9BB29B029BB284
:10F0F40013439BB26FEA43436FEA53439AB2BB6D27
:10F104001A8041E0D7F88C30002B0AD1BB6D1B88E4
:10F114009BB26FEA43436FEA53439AB2BB6D1A80C2
:10F1240032E0D7F88C305B08BB66D7F88C3003F03C
:10F134000103002B02D0BB6E0133BB66BB6D1B8881
:10F144009AB2BB6E9BB29B029BB213439AB2BB6D45
:10F154001A8019E0BB685B78012B15D1FB681B682A
:10F16400B3F850309BB21A467B6D13447B65BB6881
:10F174001B781A017B6D134403F20C433B65D7F8EB
:10F184008C309AB23B6D1A80FB681868BB68596969
:10F19400BB685A89D7F88C309BB202F0E4FFFB6855
:10F1A4001B681A46BB681B789B0013441B889BB2E0
:10F1B40023F4E04323F04003BB82BB8A83F01003B3
:10F1C400BB82BB8A83F02003BB82FB681B681A46A0
:10F1D400BB681B789B001A44BB8A43F07F4343F40B
:10F1E4007F0343F4004343F080039BB21380002366
:10F1F40018469037BD4680BD80B487B000AFF86034
:10F204007B600B467B8113463B817B8903F0800343
:10F214009BB2002B0BD07B8903F007035A1C1346C7
:10F224009B001344DB00FA6813447B6109E07A898C
:10F2340013469B001344DB0003F5B473FA681344CC
:10F244007B613B89002B07D17B6900221A737B68A1
:10F254009AB27B69DA800BE07B6901221A737B68BE
:10F264009AB27B691A817B681B0C9AB27B695A81BA
:10F27400002318461C37BD4680BC704790B488B044
:10F2840000AFF860B9607A60FB681A46BB681B0E71
:10F2940013441C462268BB687B617B6993FAA3F321
:10F2A4003B613B69B3FA83F3DBB29B000F2101FAA4
:10F2B40003F3DB431A40BB68FB61FB6993FAA3F3D6
:10F2C400BB61BB69B3FA83F3DBB29B00796801FAD3
:10F2D40003F31343236000BF2037BD4690BC70473F
:10F2E40090B488B000AFF860B9607A60FB681A46E1
:10F2F400BB681B0E13441C462268BB687B617B6998
:10F3040093FAA3F33B613B69B3FA83F3DBB29B004B
:10F31400032101FA03F3DB431A40BB68FB61FB6979
:10F3240093FAA3F3BB61BB69B3FA83F3DBB29B002B
:10F33400796801FA03F31343236000BF2037BD4605
:10F3440090BC704790B488B000AFF860B9607A6040
:10F35400FB681A46BB681B0E13441C462268BB6834
:10F364007B617B6993FAA3F33B613B69B3FA83F353
:10F37400DBB29B00042101FA03F3DB431A40BB68B0
:10F38400FB61FB6993FAA3F3BB61BB69B3FA83F333
:10F39400DBB29B00796801FA03F31343236000BFD7
:10F3A4002037BD4690BC704780B487B000AFF8608A
:10F3B400B9607A60FB68DA68BB681B0ADB431A40F1
:10F3C400BB681B0A7B617B6993FAA3F33B613B69CE
:10F3D400B3FA83F3DBB219467B688B401A43FB68AC
:10F3E400DA6000BF1C37BD4680BC704780B588B06A
:10F3F40000AF786039603B681B681B021B0C7B61A3
:10F404007B693B613B6993FAA3F3FB60FB68B3FA46
:10F4140083F3DBB2FB6144E00122FB699A407B6920
:10F424001340002B3AD0FB69072B06D840F2011297
:10F43400FB6902FA03F3BB6108E0FB69083B4FF088
:10F44400011202FA03F343F08063BB613B685B681B
:10F45400082B06D13B681B691A46B9697868FFF71F
:10F46400A3FF3B685B681A46B9697868FFF706FF33
:10F474003B685B68012B03D03B685B68092B0DD1AB
:10F484003B689B681A46B9697868FFF729FF3B68AF
:10F49400DB681A46B9697868FFF754FFFB690133E2
:10F4A400FB617A69FB6922FA03F3002BB4D10023D0
:10F4B40018462037BD4680BD80B483B000AF786065
:10F4C4007B681B6803F04003402B01D1012300E05B
:10F4D400002318460C37BD4680BC704780B483B007
:10F4E40000AF786039603B689BB21A467B681A614A
:10F4F40000BF0C37BD4680BC704780B584B000AFF8
:10F50400786039600123FB737868FFF7D5FF034601
:10F51400002B39D17B681B6823F47F4323F0BF039E
:10F524003A6811683A68526811433A68926811431C
:10F534003A68D26811433A68126911433A685269C9
:10F5440011433A68926911433A68D26911433A689F
:10F55400126A0A431A437B681A607B685B6823F06B
:10F5640004023B685B691B0C1A437B685A603B6866
:10F574001B6AB3F5005F05D13B685B6A194678687E
:10F58400FFF7ACFF0023FB737B68DB6923F40062A5
:10F594007B68DA61FB7B18461037BD4680BD80B4BA
:10F5A40083B000AF786039607B683A689A6200BFC4
:10F5B4000C37BD4680BC704780B483B000AF786020
:10F5C40039607B683A68DA6200BF0C37BD4680BC9C
:10F5D400704780B483B000AF786039607B683A6864
:10F5E4001A6300BF0C37BD4680BC704780B483B03B
:10F5F40000AF786039607B683A685A6300BF0C37A3
:10F60400BD4680BC704780B483B000AF7860396079
:10F614007B683A689A6300BF0C37BD4680BC70476C
:10F6240080B483B000AF786039607B683A68DA638D
:10F6340000BF0C37BD4680BC704780B483B000AFB8
:10F64400786039607B683A681A6400BF0C37BD463D
:10F6540080BC704780B483B000AF78607B685B691E
:10F6640043F001027B685A6100BF0C37BD4680BC81
:10F674007047000080B584B000AF786039607B6863
:10F684001B68FB607B68314A934213D07B68304A25
:10F6940093420FD07B68B3F1804F0BD07B682D4A27
:10F6A400934207D07B682C4A934203D07B682B4A51
:10F6B400934206D1FB6823F070023B685B681343F6
:10F6C400FB607B68214A934213D07B68204A9342B3
:10F6D4000FD07B68B3F1804F0BD07B681D4A9342F7
:10F6E40007D07B681C4A934203D07B681B4A934231
:10F6F40006D1FB6823F440723B68DB681343FB606C
:10F704007B68FA681A603B689B6819467868FFF75B
:10F7140053FF3B681B8819467868FFF740FF7B68F6
:10F724000A4A934203D07B68094A934205D13B6855
:10F734001B6919467868FFF74CFF7868FFF78AFF62
:10F74400002318461037BD4680BD00BF002C014081
:10F75400003401400004004000080040000C004058
:10F7640080B586B000AFF860B9607A600123FB759C
:10F77400BB68B3F5805F27D0BB68B3F5805F2AD838
:10F78400BB68B3F5807F18D0BB68B3F5807F22D8FF
:10F79400BB68012B03D0BB68102B07D01BE0796832
:10F7A400F86800F01FF80346FB7515E07968F868FF
:10F7B40000F084F80346FB750EE07968F86800F001
:10F7C400EDF80346FB7507E07968F86800F056F930
:10F7D4000346FB7500E000BFFB7D18461837BD46A5
:10F7E40080BD000080B586B000AF786039607B686A
:10F7F4001B6A23F001027B681A627B681B6A7B61C7
:10F804007B685B683B617B689B69FB60FB6823F0FA
:10F814000303FB60FB6823F070023B681B6813431F
:10F82400FB607B6923F002023B681B6913437B6125
:10F834007B6923F001023B685B6813437B617B684F
:10F844001C4A934203D07B681B4A93421ED17B69B6
:10F8540023F008023B685B699B0013437B617B696F
:10F8640023F004023B689B689B0013437B613B6964
:10F8740023F480723B689B6913433B613B6923F427
:10F8840000723B68DB695B0013433B617B683A6948
:10F894005A607B68FA689A613B68DB681946786845
:10F8A400FFF7A4FE7B687A691A62002318461837AA
:10F8B400BD4680BD002C01400034014080B586B0B7
:10F8C40000AF786039607B681B6A23F010027B68A4
:10F8D4001A627B681B6A7B617B685B683B617B683F
:10F8E4009B69FB60FB6823F44073FB60FB6823F4B3
:10F8F400E0423B681B681B021343FB607B6923F0F7
:10F9040020023B681B691B0113437B617B6923F065
:10F9140010023B685B681B0113437B617B681D4AD3
:10F92400934203D07B681C4A93421FD17B6923F026
:10F9340080023B685B699B0113437B617B6923F015
:10F9440040023B689B689B0113437B613B6923F442
:10F9540080623B689B699B0013433B613B6923F4D2
:10F9640000623B68DB69DB0013433B617B683A69F7
:10F974005A607B68FA689A613B68DB681946786864
:10F98400FFF741FE7B687A691A620023184618372C
:10F99400BD4680BD002C01400034014080B586B0D6
:10F9A40000AF786039607B681B6A23F480727B68DF
:10F9B4001A627B681B6A7B617B685B683B617B685E
:10F9C400DB69FB60FB6823F00303FB60FB6823F047
:10F9D40070023B681B681343FB607B6923F400726D
:10F9E4003B681B691B0213437B617B6923F48072B0
:10F9F4003B685B681B0213437B617B681D4A93422F
:10FA040003D07B681C4A93421FD17B6923F40062B4
:10FA14003B685B699B0213437B617B6923F48062CF
:10FA24003B689B689B0213437B613B6923F48052D0
:10FA34003B689B691B0113433B613B6923F4005200
:10FA44003B68DB695B0113433B617B683A695A603D
:10FA54007B68FA68DA613B68DB6819467868FFF707
:10FA6400DFFD7B687A691A62002318461837BD46A1
:10FA740080BD00BF002C01400034014080B586B039
:10FA840000AF786039607B681B6A23F480527B681E
:10FA94001A627B681B6A3B617B685B687B617B687D
:10FAA400DB69FB60FB6823F44073FB60FB6823F4B1
:10FAB400E0423B681B681B021343FB603B6923F471
:10FAC40000523B681B691B0313433B613B6923F4EE
:10FAD40080523B685B681B0313433B617B68114A9C
:10FAE400934203D07B68104A934207D17B6923F485
:10FAF40080423B689B699B0113437B617B687A6905
:10FB04005A607B68FA68DA613B68DB681946786892
:10FB1400FFF793FD7B683A691A6200231846183789
:10FB2400BD4680BD002C01400034014084B080B447
:10FB340083B000AF786007F1140080E80E00002362
:10FB440018460C37BD4680BC04B0704780B485B0FD
:10FB540000AF78607B680022A3F844204FF43F4351
:10FB6400FB60FB689AB27B68A3F840200023184628
:10FB74001437BD4680BC704780B485B000AF786050
:10FB84004FF43F43FB607B68B3F840309AB2FB68A4
:10FB94009BB2DB439BB213409AB27B68A3F840202C
:10FBA400002318461437BD4680BC704780B483B028
:10FBB40000AF78600B46FB70002318460C37BD4637
:10FBC40080BC704784B080B483B000AF786007F124
:10FBD400140080E80E007B680122A3F840207B68B3
:10FBE4000022A3F840207B680022A3F844207B680D
:10FBF4000022A3F85020002318460C37BD4680BCD1
:10FC040004B0704780B483B000AF786039600023DB
:10FC140018460C37BD4680BC704780B483B000AF33
:10FC24007860002318460C37BD4680BC704700003E
:10FC340080B49DB000AF78603960002387F86F30DE
:10FC44007A683B681B789B0013441B889BB223F49F
:10FC5400EC4323F07003A7F86C303B68DB78032B8C
:10FC64001FD801A252F823F07DFC000899FC00087B
:10FC7400AFFC00088BFC0008B7F86C3043F4007349
:10FC8400A7F86C3012E0B7F86C3043F4C063A7F8FF
:10FC94006C300BE0B7F86C3043F48063A7F86C3039
:10FCA40004E0012387F86F3000E000BF7A683B6806
:10FCB4001B789B001A44B7F86C3043F07F4343F43D
:10FCC4007F0343F4004343F080039BB213807A68BC
:10FCD4003B681B789B0013441B889BB223F4E043CE
:10FCE40023F070039AB23B681B789BB21343A7F8C6
:10FCF40066307A683B681B789B001A44B7F8663014
:10FD040043F07F4343F47F0343F4004343F0800311
:10FD14009BB213803B681B7B002B40F078813B68CF
:10FD24005B78002B00F084807B68BB617B68B3F850
:10FD340050309BB21A46BB691344BB613B681B78C5
:10FD44001A01BB69134403F580637B613B68DB885C
:10FD54005B089BB25B009AB27B691A807A683B6845
:10FD64001B789B0013441B887B827B8A03F040032F
:10FD7400002B1BD07A683B681B789B0013441B88BC
:10FD84009BB223F4E04323F070033B827A683B6820
:10FD94001B789B001A443B8A43F07F4343F47F0360
:10FDA40043F4004343F0C0039BB213803B68DB7809
:10FDB400012B20D07A683B681B789B0013441B8876
:10FDC4009BB223F4E04323F04003BB81BB8983F05F
:10FDD4002003BB817A683B681B789B001A44BB896B
:10FDE40043F07F4343F47F0343F4004343F0800331
:10FDF4009BB21380D5E27A683B681B789B0013445E
:10FE04001B889BB223F4E04323F04003FB817A6810
:10FE14003B681B789B001A44FB8943F07F4343F4FF
:10FE24007F0343F4004343F080039BB21380B8E2A2
:10FE34007B683B637B68B3F850309BB21A463B6BDC
:10FE440013443B633B681B781A013B6B134403F573
:10FE54008163FB623B68DB885B089BB25B009AB200
:10FE6400FB6A1A807B68BB627B68B3F850309BB234
:10FE74001A46BB6A1344BB623B681B781A01BB6A0F
:10FE8400134403F20C437B627B6A1B889BB2C3F36B
:10FE940009039AB27B6A1A803B681B693E2B1DD901
:10FEA4003B681B695B09BB663B681B6903F01F0366
:10FEB400002B02D1BB6E013BBB667B6A1B889AB2E6
:10FEC400BB6E9BB29B029BB213439BB26FEA43434C
:10FED4006FEA53439AB27B6A1A8026E03B681B6937
:10FEE400002B0AD17B6A1B889BB26FEA43436FEAFB
:10FEF40053439AB27B6A1A8017E03B681B695B081C
:10FF0400BB663B681B6903F00103002B02D0BB6E88
:10FF14000133BB667B6A1B889AB2BB6E9BB29B02A1
:10FF24009BB213439AB27B6A1A807A683B681B7847
:10FF34009B0013441B887B847B8C03F48043002B3D
:10FF44001BD07A683B681B789B0013441B889BB2C8
:10FF540023F4E04323F070033B847A683B681B7806
:10FF64009B001A443B8C43F07F4343F47F0343F4E8
:10FF7400404343F080039BB213803B681B78002B03
:10FF840024D17A683B681B789B0013441B889BB27E
:10FF940023F4804323F07003BB83BB8B83F480532F
:10FFA400BB83BB8B83F40053BB837A683B681B78A9
:10FFB4009B001A44BB8B43F07F4343F47F0343F419
:10FFC400004343F080039BB21380EAE17A683B6804
:10FFD4001B789B0013441B889BB223F4804323F0BB
:10FFE4007003FB83FB8B83F40053FB837A683B68C9
:0CFFF4001B789B001A44FB8B43F07F43FA
:020000040801F1
:1000000043F47F0343F4004343F080039BB2138027
:10001000C9E13B68DB78022B1ED17A683B681B780C
:100020009B0013441B889BB223F4E04323F070032E
:10003000A7F862307A683B681B789B001A44B7F8CF
:10004000623043F07F4343F47F0343F4014343F0C2
:1000500080039BB213801DE07A683B681B789B008D
:1000600013441B889BB223F4E24323F07003A7F8E8
:1000700064307A683B681B789B001A44B7F8643098
:1000800043F07F4343F47F0343F4004343F0800392
:100090009BB213807B68FB657B68B3F850309BB2E2
:1000A0001A46FB6D1344FB653B681B781A01FB6D18
:1000B000134403F58063BB653B681B895B089BB2F7
:1000C0005B009AB2BB6D1A807B687B657B68B3F876
:1000D00050309BB21A467B6D13447B653B681B789E
:1000E0001A017B6D134403F581633B653B685B89B3
:1000F0005B089BB25B009AB23B6D1A803B685B78F1
:10010000002B40F093807A683B681B789B00134477
:100110001B88A7F84030B7F8403003F48043002B29
:100120001BD07A683B681B789B0013441B889BB2EA
:1001300023F4E04323F07003FB877A683B681B7865
:100140009B001A44FB8F43F07F4343F47F0343F447
:10015000404343F080039BB213807A683B681B786E
:100160009B0013441B88BB87BB8F03F04003002B0D
:100170001BD07A683B681B789B0013441B889BB29A
:1001800023F4E04323F070037B877A683B681B7895
:100190009B001A447B8F43F07F4343F47F0343F477
:1001A000004343F0C0039BB213807A683B681B781E
:1001B0009B0013441B889BB223F4804323F07003FD
:1001C0003B873B8F83F480533B873B8F83F4005303
:1001D0003B877A683B681B789B001A443B8F43F04F
:1001E0007F4343F47F0343F4004343F080039BB217
:1001F00013807A683B681B789B0013441B889BB272
:1002000023F4E04323F04003FB867A683B681B78C5
:100210009B001A44FB8E43F07F4343F47F0343F477
:10022000004343F080039BB21380BCE07A683B68D4
:100230001B789B0013441B88A7F84E30B7F84E304C
:1002400003F48043002B1DD07A683B681B789B0029
:1002500013441B889BB223F4E04323F07003A7F8F8
:100260004C307A683B681B789B001A44B7F84C30D6
:1002700043F07F4343F47F0343F4404343F0800360
:100280009BB213807A683B681B789B0013441B88E1
:10029000A7F84A30B7F84A3003F04003002B1DD0CE
:1002A0007A683B681B789B0013441B889BB223F43D
:1002B000E04323F07003A7F848307A683B681B7866
:1002C0009B001A44B7F8483043F07F4343F47F0360
:1002D00043F4004343F0C0039BB213803B68DB78D8
:1002E000012B24D07A683B681B789B0013441B8841
:1002F0009BB223F4E04323F04003A7F84430B7F85F
:10030000443083F02003A7F844307A683B681B78B8
:100310009B001A44B7F8443043F07F4343F47F0313
:1003200043F4004343F080039BB213801DE07A68DE
:100330003B681B789B0013441B889BB223F4E0436B
:1003400023F04003A7F846307A683B681B789B008F
:100350001A44B7F8463043F07F4343F47F0343F435
:10036000004343F080039BB213807A683B681B789C
:100370009B0013441B889BB223F4804323F070033B
:10038000A7F842307A683B681B789B001A44B7F89C
:10039000423043F07F4343F47F0343F4004343F090
:1003A00080039BB2138097F86F3018467437BD46B0
:1003B00080BC704780B48DB000AF786039603B6816
:1003C0001B7B002B40F08E803B685B78002B44D079
:1003D0007A683B681B789B0013441B88BB81BB89F0
:1003E00003F04003002B1BD07A683B681B789B000E
:1003F00013441B889BB223F4E04323F070037B81FA
:100400007A683B681B789B001A447B8943F07F43E2
:1004100043F47F0343F4004343F0C0039BB21380D3
:100420007A683B681B789B0013441B889BB223F4BB
:10043000E04323F040033B817A683B681B789B00D4
:100440001A443B8943F07F4343F47F0343F4004362
:1004500043F080039BB2138092E17A683B681B787B
:100460009B0013441B887B827B8A03F48043002B10
:100470001BD07A683B681B789B0013441B889BB297
:1004800023F4E04323F070033B827A683B681B78D7
:100490009B001A443B8A43F07F4343F47F0343F4B9
:1004A000404343F080039BB213807A683B681B781B
:1004B0009B0013441B889BB223F4804323F07003FA
:1004C000FB817A683B681B789B001A44FB8943F0E8
:1004D0007F4343F47F0343F4004343F080039BB224
:1004E00013804DE13B685B78002B40F0A5807A6873
:1004F0003B681B789B0013441B883B843B8C03F4B4
:100500008043002B1BD07A683B681B789B00134408
:100510001B889BB223F4E04323F07003FB837A68CB
:100520003B681B789B001A44FB8B43F07F4343F4EA
:100530007F0343F4404343F080039BB213807A6807
:100540003B681B789B0013441B88BB83BB8B03F069
:100550004003002B1BD07A683B681B789B00134438
:100560001B889BB223F4E04323F070037B837A68FB
:100570003B681B789B001A447B8B43F07F4343F41A
:100580007F0343F4004343F0C0039BB213807A68B7
:100590003B681B789B0013441B889BB223F4E04309
:1005A00023F070033B837A683B681B789B001A44F6
:1005B0003B8B43F07F4343F47F0343F4004343F01A
:1005C000C0039BB213807A683B681B789B0013447E
:1005D0001B889BB223F4804323F07003FB827A686C
:1005E0003B681B789B001A44FB8A43F07F4343F42B
:1005F0007F0343F4004343F080039BB213807A6887
:100600003B681B789B0013441B889BB223F4E04398
:1006100023F04003BB827A683B681B789B001A4436
:10062000BB8A43F07F4343F47F0343F4004343F02A
:1006300080039BB21380A3E07A683B681B789B0021
:1006400013441B88FB85FB8D03F48043002B1BD0D8
:100650007A683B681B789B0013441B889BB223F489
:10066000E04323F07003BB857A683B681B789B00EE
:100670001A44BB8D43F07F4343F47F0343F440436C
:1006800043F080039BB213807A683B681B789B0021
:1006900013441B887B857B8D03F04003002B1BD00C
:1006A0007A683B681B789B0013441B889BB223F439
:1006B000E04323F070033B857A683B681B789B001E
:1006C0001A443B8D43F07F4343F47F0343F40043DC
:1006D00043F0C0039BB213807A683B681B789B0091
:1006E00013441B889BB223F4E04323F07003FB8484
:1006F0007A683B681B789B001A44FB8C43F07F436D
:1007000043F47F0343F4404343F080039BB21380E0
:100710007A683B681B789B0013441B889BB223F4C8
:10072000E04323F04003BB847A683B681B789B005E
:100730001A44BB8C43F07F4343F47F0343F40043EC
:1007400043F080039BB213807A683B681B789B0060
:1007500013441B889BB223F4804323F070037B84F3
:100760007A683B681B789B001A447B8C43F07F437C
:1007700043F47F0343F4004343F080039BB21380B0
:10078000002318463437BD4680BC704780B5C2B0E0
:1007900000AF07F58473A3F58273186007F58473BF
:1007A000A3F58473196007F58473A3F584731B683C
:1007B0005B78012B40F0B78607F58473A3F584734B
:1007C0001B689A6907F58473A3F584731B681B691A
:1007D0009A4208D907F58473A3F584731B681B69D3
:1007E000C7F8043107E007F58473A3F584731B6829
:1007F0009B69C7F8043107F58473A3F584731B68FC
:100800001B7B002B3AD107F58473A3F584731B6817
:10081000596907F58473A3F584731B68DA88D7F8E0
:1008200004319BB207F58470A0F58270006801F076
:100830009CFC07F58473A3F582731B683B6107F585
:100840008473A3F582731B68B3F850309BB21A46C9
:100850003B6913443B6107F58473A3F584731B68FC
:100860001B781A013B69134403F20443FB60D7F879
:1008700004319AB2FB681A8000F01FBE07F584733A
:10088000A3F584731B68DB78022B40F0628407F5C4
:100890008473A3F584731B681A6A07F58473A3F540
:1008A00084731B681B699A4240F2DF8307F58473E7
:1008B000A3F582731A6807F58473A3F584731B6824
:1008C0001B789B0013441B889BB223F4E04323F066
:1008D0007003A7F8563007F58473A3F582731A687E
:1008E00007F58473A3F584731B681B789B001A4477
:1008F000B7F8563043F07F4343F47F0343F401439A
:1009000043F080039BB2138007F58473A3F58473CF
:100910001B681A6AD7F80431D21A07F58473A3F555
:1009200084731B681A6207F58473A3F582731A68CF
:1009300007F58473A3F584731B681B789B0013442D
:100940001B889BB203F04003002B00F0C78107F522
:100950008473A3F582731B683B6307F58473A3F567
:1009600084731B685B78002B77D107F58473A3F53C
:1009700082731B68BB6207F58473A3F582731B68DF
:10098000B3F850309BB21A46BB6A1344BB6207F5FA
:100990008473A3F584731B681B781A01BB6A134424
:1009A00003F20C437B627B6A1B889BB2C3F309038F
:1009B0009AB27B6A1A80D7F804313E2B21D9D7F836
:1009C00004315B09C7F80031D7F8043103F01F0385
:1009D000002B04D1D7F80031013BC7F800317B6A06
:1009E0001B889AB2D7F800319BB29B029BB213438B
:1009F0009BB26FEA43436FEA53439AB27B6A1A8011
:100A000050E0D7F80431002B0AD17B6A1B889BB2D7
:100A10006FEA43436FEA53439AB27B6A1A8041E01C
:100A2000D7F804315B08C7F80031D7F8043103F078
:100A30000103002B04D0D7F800310133C7F800318F
:100A40007B6A1B889AB2D7F800319BB29B029BB29B
:100A500013439AB27B6A1A8024E007F58473A3F5E6
:100A600084731B685B78012B1CD107F58473A3F595
:100A700082731B68B3F850309BB21A463B6B134429
:100A80003B6307F58473A3F584731B681B781A0115
:100A90003B6B134403F20C43FB62D7F804319AB268
:100AA000FB6A1A8007F58473A3F584731B685B895E
:100AB000A7F8763007F58473A3F584731B6859692A
:100AC000D7F804319BB2B7F8762007F58470A0F50B
:100AD0008270006801F049FB07F58473A3F5847305
:100AE0001B685A69D7F804311A4407F58473A3F5D3
:100AF00084731B685A6107F58473A3F584731B68BC
:100B00001A6A07F58473A3F584731B681B699A42FC
:100B10000FD907F58473A3F584731B681A6AD7F895
:100B20000431D21A07F58473A3F584731B681A6223
:100B30000EE007F58473A3F584731B681B6AC7F87E
:100B4000043107F58473A3F584731B6800221A62CD
:100B500007F58473A3F584731B685B78002B77D14A
:100B600007F58473A3F582731B68BB6107F5847373
:100B7000A3F582731B68B3F850309BB21A46BB6969
:100B80001344BB6107F58473A3F584731B681B785A
:100B90001A01BB69134403F204437B617B691B8820
:100BA0009BB2C3F309039AB27B691A80D7F8043168
:100BB0003E2B21D9D7F804315B09C7F8FC30D7F8B0
:100BC000043103F01F03002B04D1D7F8FC30013BA4
:100BD000C7F8FC307B691B889AB2D7F8FC309BB20F
:100BE0009B029BB213439BB26FEA43436FEA5343AA
:100BF0009AB27B691A8056E0D7F80431002B0AD1EB
:100C00007B691B889BB26FEA43436FEA53439AB2F6
:100C10007B691A8047E0D7F804315B08C7F8FC30DD
:100C2000D7F8043103F00103002B04D0D7F8FC30CF
:100C30000133C7F8FC307B691B889AB2D7F8FC30C7
:100C40009BB29B029BB213439AB27B691A802AE043
:100C500007F58473A3F584731B685B78012B22D19D
:100C600007F58473A3F582731B683B6207F58473F1
:100C7000A3F582731B68B3F850309BB21A463B6AE7
:100C800013443B6207F58473A3F584731B681B78D8
:100C90001A013B6A134403F20443FB61D7F80431A1
:100CA0009AB2FB691A8007F58473A3F584731B68F5
:100CB0001B89A7F8763007F58473A3F584731B6846
:100CC0005969D7F804319BB2B7F8762007F58470DC
:100CD000A0F58270006801F048FAEEE307F584732E
:100CE000A3F584731B685B78002B77D107F58473B9
:100CF000A3F582731B68BB6407F58473A3F5827345
:100D00001B68B3F850309BB21A46BB6C1344BB64EB
:100D100007F58473A3F584731B681B781A01BB6CF9
:100D2000134403F204437B647B6C1B889BB2C3F3C4
:100D300009039AB27B6C1A80D7F804313E2B21D973
:100D4000D7F804315B09C7F8F830D7F8043103F05D
:100D50001F03002B04D1D7F8F830013BC7F8F83057
:100D60007B6C1B889AB2D7F8F8309BB29B029BB27F
:100D700013439BB26FEA43436FEA53439AB27B6CCF
:100D80001A8056E0D7F80431002B0AD17B6C1B88FF
:100D90009BB26FEA43436FEA53439AB27B6C1A806B
:100DA00047E0D7F804315B08C7F8F830D7F80431CA
:100DB00003F00103002B04D0D7F8F8300133C7F853
:100DC000F8307B6C1B889AB2D7F8F8309BB29B0244
:100DD0009BB213439AB27B6C1A802AE007F58473A6
:100DE000A3F584731B685B78012B22D107F584730C
:100DF000A3F582731B683B6507F58473A3F58273C3
:100E00001B68B3F850309BB21A463B6D13443B65E8
:100E100007F58473A3F584731B681B781A013B6D77
:100E2000134403F20443FB64D7F804319AB2FB6C19
:100E30001A8007F58473A3F584731B681B89A7F8D0
:100E4000763007F58473A3F584731B685969D7F866
:100E500004319BB2B7F8762007F58470A0F5827054
:100E6000006801F082F907F58473A3F584731B68A9
:100E70005A69D7F804311A4407F58473A3F58473CB
:100E80001B685A6107F58473A3F584731B681A6A9B
:100E900007F58473A3F584731B681B699A420FD905
:100EA00007F58473A3F584731B681A6AD7F80431B5
:100EB000D21A07F58473A3F584731B681A620EE0D7
:100EC00007F58473A3F584731B681B6AC7F80431A4
:100ED00007F58473A3F584731B6800221A6207F573
:100EE0008473A3F582731B683B6407F58473A3F5D1
:100EF00084731B685B78002B77D107F58473A3F5A7
:100F000082731B68BB6307F58473A3F582731B6848
:100F1000B3F850309BB21A46BB6B1344BB6307F562
:100F20008473A3F584731B681B781A01BB6B13448D
:100F300003F20C437B637B6B1B889BB2C3F30903F7
:100F40009AB27B6B1A80D7F804313E2B21D9D7F89F
:100F500004315B09C7F8F430D7F8043103F01F03FC
:100F6000002B04D1D7F8F430013BC7F8F4307B6B89
:100F70001B889AB2D7F8F4309BB29B029BB2134302
:100F80009BB26FEA43436FEA53439AB27B6B1A807A
:100F900050E0D7F80431002B0AD17B6B1B889BB241
:100FA0006FEA43436FEA53439AB27B6B1A8041E086
:100FB000D7F804315B08C7F8F430D7F8043103F0F0
:100FC0000103002B04D0D7F8F4300133C7F8F43014
:100FD0007B6B1B889AB2D7F8F4309BB29B029BB212
:100FE00013439AB27B6B1A8024E007F58473A3F550
:100FF00084731B685B78012B1CD107F58473A3F500
:1010000082731B68B3F850309BB21A463B6C134492
:101010003B6407F58473A3F584731B681B781A017E
:101020003B6C134403F20C43FB63D7F804319AB2D0
:10103000FB6B1A8007F58473A3F584731B685B89C7
:10104000A7F8763007F58473A3F584731B68596994
:10105000D7F804319BB2B7F8762007F58470A0F575
:101060008270006801F081F827E207F58473A3F528
:1010700084731B681B6AC7F8043107F58473A3F5F2
:1010800082731A6807F58473A3F584731B681B7851
:101090009B0013441B889BB223F4E24323F07003AC
:1010A000A7F8623007F58473A3F582731A6807F511
:1010B0008473A3F584731B681B789B001A44B7F8EC
:1010C000623043F07F4343F47F0343F4004343F033
:1010D00080039BB2138007F58473A3F582731B68AA
:1010E000FB6507F58473A3F582731B68B3F8503072
:1010F0009BB21A46FB6D1344FB6507F58473A3F599
:1011000084731B681B781A01FB6D134403F20443BC
:10111000BB65D7F804319AB2BB6D1A8007F58473AA
:10112000A3F584731B681B89A7F8763007F58473D1
:10113000A3F584731B685969D7F804319BB2B7F8DB
:10114000762007F58470A0F58270006801F00DF834
:10115000B3E107F58473A3F584731B681A6AD7F8A3
:101160000431D21A07F58473A3F584731B681A62DD
:1011700007F58473A3F582731A6807F58473A3F5E2
:1011800084731B681B789B0013441B889BB203F07D
:101190004003002B00F0C68007F58473A3F582732B
:1011A0001B683B6707F58473A3F584731B685B7842
:1011B000002B77D107F58473A3F582731B68BB6698
:1011C00007F58473A3F582731B68B3F850309BB2A4
:1011D0001A46BB6E1344BB6607F58473A3F584738C
:1011E0001B681B781A01BB6E134403F20C437B6629
:1011F0007B6E1B889BB2C3F309039AB27B6E1A8085
:10120000D7F804313E2B21D9D7F804315B09C7F850
:10121000F030D7F8043103F01F03002B04D1D7F8C6
:10122000F030013BC7F8F0307B6E1B889AB2D7F8DC
:10123000F0309BB29B029BB213439BB26FEA4343D5
:101240006FEA53439AB27B6E1A8050E0D7F80431AC
:10125000002B0AD17B6E1B889BB26FEA43436FEA77
:1012600053439AB27B6E1A8041E0D7F804315B0891
:10127000C7F8F030D7F8043103F00103002B04D095
:10128000D7F8F0300133C7F8F0307B6E1B889AB284
:10129000D7F8F0309BB29B029BB213439AB27B6E9D
:1012A0001A8024E007F58473A3F584731B685B78C8
:1012B000012B1CD107F58473A3F582731B68B3F867
:1012C00050309BB21A463B6F13443B6707F584735B
:1012D000A3F584731B681B781A013B6F134403F258
:1012E0000C43FB66D7F804319AB2FB6E1A8007F5FF
:1012F0008473A3F584731B685B89A7F8763007F5C0
:101300008473A3F584731B685969D7F804319BB2C1
:10131000B7F8762007F58470A0F58270006800F0B9
:1013200024FFCAE007F58473A3F584731B685B7818
:10133000002B77D107F58473A3F582731B68FB67D5
:1013400007F58473A3F582731B68B3F850309BB222
:101350001A46FB6F1344FB6707F58473A3F5847388
:101360001B681B781A01FB6F134403F20443BB672D
:10137000BB6F1B889BB2C3F309039AB2BB6F1A8081
:10138000D7F804313E2B21D9D7F804315B09C7F8CF
:10139000EC30D7F8043103F01F03002B04D1D7F849
:1013A000EC30013BC7F8EC30BB6F1B889AB2D7F822
:1013B000EC309BB29B029BB213439BB26FEA434358
:1013C0006FEA53439AB2BB6F1A805CE0D7F80431DE
:1013D000002B0AD1BB6F1B889BB26FEA43436FEAB5
:1013E00053439AB2BB6F1A804DE0D7F804315B08C3
:1013F000C7F8EC30D7F8043103F00103002B04D018
:10140000D7F8EC300133C7F8EC30BB6F1B889AB2C9
:10141000D7F8EC309BB29B029BB213439AB2BB6FDE
:101420001A8030E007F58473A3F584731B685B783A
:10143000012B28D107F58473A3F582731B68C7F8C5
:10144000843007F58473A3F582731B68B3F85030BA
:101450009BB21A46D7F884301344C7F8843007F596
:101460008473A3F584731B681B781A01D7F8843042
:10147000134403F20443C7F88030D7F804319AB21A
:10148000D7F880301A8007F58473A3F584731B683E
:101490001B89A7F8763007F58473A3F584731B685E
:1014A0005969D7F804319BB2B7F8762007F58470F4
:1014B000A0F58270006800F058FE07F58473A3F56C
:1014C00082731A6807F58473A3F584731B681B780D
:1014D0009B0013441B889BB223F4E04323F040039A
:1014E0007B817B8983F010037B817B8983F02003E0
:1014F0007B8107F58473A3F582731A6807F58473FB
:10150000A3F584731B681B789B001A447B8943F006
:101510007F4343F47F0343F4004343F080039BB2D3
:10152000138000F0DEBC07F58473A3F584731B6899
:101530001B7B002B40F0BB8007F58473A3F58473FD
:101540001B689A6907F58473A3F584731B681B698C
:101550009A4217D907F58473A3F584731B681B6936
:10156000C7F8043107F58473A3F584731B689A697F
:10157000D7F80431D21A07F58473A3F584731B6876
:101580009A610EE007F58473A3F584731B689B6969
:10159000C7F8043107F58473A3F584731B68002230
:1015A0009A6107F58473A3F582731B68C7F89030BE
:1015B00007F58473A3F582731B68B3F850309BB2B0
:1015C0001A46D7F890301344C7F8903007F5847363
:1015D000A3F584731B681B781A01D7F89030134465
:1015E00003F20C43C7F88C30D7F88C301B889BB2C1
:1015F000C3F309039AB2D7F88C301A80D7F80431B4
:101600003E2B24D9D7F804315B09C7F8E830D7F866
:10161000043103F01F03002B04D1D7F8E830013B5D
:10162000C7F8E830D7F88C301B889AB2D7F8E83082
:101630009BB29B029BB213439BB26FEA43436FEA98
:1016400053439AB2D7F88C301A8000F010BCD7F808
:101650000431002B0CD1D7F88C301B889BB26FEA79
:1016600043436FEA53439AB2D7F88C301A80FEE3B3
:10167000D7F804315B08C7F8E830D7F8043103F035
:101680000103002B04D0D7F8E8300133C7F8E83065
:10169000D7F88C301B889AB2D7F8E8309BB29B02FF
:1016A0009BB213439AB2D7F88C301A80DFE307F568
:1016B0008473A3F584731B68DB78022B40F01882D7
:1016C00007F58473A3F584731B685B78002B40F0E7
:1016D0009D8007F58473A3F582731B68C7F8AC304F
:1016E00007F58473A3F582731B68B3F850309BB27F
:1016F0001A46D7F8AC301344C7F8AC3007F58473FA
:10170000A3F584731B681B781A01D7F8AC30134417
:1017100003F20443C7F8A830D7F8A8301B889BB25F
:10172000C3F309039AB2D7F8A8301A8007F5847377
:10173000A3F584731B681B693E2B2BD907F58473B3
:10174000A3F584731B681B695B09C7F8E43007F5D0
:101750008473A3F584731B681B6903F01F03002BBC
:1017600004D1D7F8E430013BC7F8E430D7F8A8300B
:101770001B889AB2D7F8E4309BB29B029BB213430A
:101780009BB26FEA43436FEA53439AB2D7F8A8304B
:101790001A8070E007F58473A3F584731B681B69D6
:1017A000002B0CD1D7F8A8301B889BB26FEA4343BB
:1017B0006FEA53439AB2D7F8A8301A805BE007F576
:1017C0008473A3F584731B681B695B08C7F8E43056
:1017D00007F58473A3F584731B681B6903F0010389
:1017E000002B04D0D7F8E4300133C7F8E430D7F841
:1017F000A8301B889AB2D7F8E4309BB29B029BB208
:1018000013439AB2D7F8A8301A8034E007F58473EE
:10181000A3F584731B685B78012B2CD107F58473C7
:10182000A3F582731B68C7F8B43007F58473A3F57A
:1018300082731B68B3F850309BB21A46D7F8B430A5
:101840001344C7F8B43007F58473A3F584731B6899
:101850001B781A01D7F8B430134403F20443C7F8D5
:10186000B03007F58473A3F584731B681B699AB2C3
:10187000D7F8B0301A8007F58473A3F582731B681C
:10188000C7F8A43007F58473A3F584731B685B78ED
:10189000002B40F09D8007F58473A3F582731B68CD
:1018A000C7F89C3007F58473A3F582731B68B3F8FF
:1018B00050309BB21A46D7F89C301344C7F89C307E
:1018C00007F58473A3F584731B681B781A01D7F896
:1018D0009C30134403F20C43C7F89830D7F8983083
:1018E0001B889BB2C3F309039AB2D7F898301A80C9
:1018F00007F58473A3F584731B681B693E2B2BD9F2
:1019000007F58473A3F584731B681B695B09C7F82B
:10191000E03007F58473A3F584731B681B6903F03B
:101920001F03002B04D1D7F8E030013BC7F8E030AB
:10193000D7F898301B889AB2D7F8E0309BB29B0258
:101940009BB213439BB26FEA43436FEA53439AB28D
:10195000D7F898301A8069E007F58473A3F584738B
:101960001B681B69002B0CD1D7F898301B889BB2E1
:101970006FEA43436FEA53439AB2D7F898301A801C
:1019800054E007F58473A3F584731B681B695B0837
:10199000C7F8E03007F58473A3F584731B681B69EF
:1019A00003F00103002B04D0D7F8E0300133C7F86F
:1019B000E030D7F898301B889AB2D7F8E0309BB265
:1019C0009B029BB213439AB2D7F898301A802DE04D
:1019D00007F58473A3F584731B685B78012B25D10D
:1019E00007F58473A3F582731B68B3F850309BB27C
:1019F0001A46D7F8A4301344C7F8A43007F5847307
:101A0000A3F584731B681B781A01D7F8A43013441C
:101A100003F20C43C7F8A03007F58473A3F5847371
:101A20001B681B699AB2D7F8A0301A8007F5847337
:101A3000A3F584731B68DB69002B00F0188207F59F
:101A40008473A3F582731A6807F58473A3F584730E
:101A50001B681B789B0013441B88A7F89630B7F8C7
:101A6000963003F48043002B05D0B7F8963003F08E
:101A70004003002B0DD1B7F8963003F48043002BC0
:101A800040F0F581B7F8963003F04003002B40F0AA
:101A9000EE8107F58473A3F582731A6807F58473E2
:101AA000A3F584731B681B789B0013441B889BB2AF
:101AB00023F4E04323F07003A7F8943007F5847310
:101AC000A3F582731A6807F58473A3F584731B6802
